{
  "contractName": "EscrowManager",
  "abi": [
    {
      "inputs": [
        {
          "internalType": "address",
          "name": "admin",
          "type": "address"
        },
        {
          "internalType": "address",
          "name": "arbiter",
          "type": "address"
        }
      ],
      "stateMutability": "nonpayable",
      "type": "constructor"
    },
    {
      "anonymous": false,
      "inputs": [
        {
          "indexed": true,
          "internalType": "bytes32",
          "name": "paymentId",
          "type": "bytes32"
        },
        {
          "indexed": true,
          "internalType": "address",
          "name": "to",
          "type": "address"
        },
        {
          "indexed": false,
          "internalType": "uint256",
          "name": "amount",
          "type": "uint256"
        },
        {
          "indexed": false,
          "internalType": "string",
          "name": "reason",
          "type": "string"
        }
      ],
      "name": "FundsRefunded",
      "type": "event"
    },
    {
      "anonymous": false,
      "inputs": [
        {
          "indexed": true,
          "internalType": "bytes32",
          "name": "paymentId",
          "type": "bytes32"
        },
        {
          "indexed": true,
          "internalType": "address",
          "name": "to",
          "type": "address"
        },
        {
          "indexed": false,
          "internalType": "uint256",
          "name": "amount",
          "type": "uint256"
        },
        {
          "indexed": false,
          "internalType": "string",
          "name": "reason",
          "type": "string"
        }
      ],
      "name": "FundsReleased",
      "type": "event"
    },
    {
      "anonymous": false,
      "inputs": [
        {
          "indexed": false,
          "internalType": "address",
          "name": "account",
          "type": "address"
        }
      ],
      "name": "Paused",
      "type": "event"
    },
    {
      "anonymous": false,
      "inputs": [
        {
          "indexed": true,
          "internalType": "bytes32",
          "name": "paymentId",
          "type": "bytes32"
        },
        {
          "indexed": true,
          "internalType": "address",
          "name": "payer",
          "type": "address"
        },
        {
          "indexed": true,
          "internalType": "address",
          "name": "payee",
          "type": "address"
        },
        {
          "indexed": false,
          "internalType": "address",
          "name": "token",
          "type": "address"
        },
        {
          "indexed": false,
          "internalType": "uint256",
          "name": "amount",
          "type": "uint256"
        }
      ],
      "name": "PaymentCreated",
      "type": "event"
    },
    {
      "anonymous": false,
      "inputs": [
        {
          "indexed": true,
          "internalType": "bytes32",
          "name": "paymentId",
          "type": "bytes32"
        },
        {
          "indexed": true,
          "internalType": "address",
          "name": "from",
          "type": "address"
        },
        {
          "indexed": false,
          "internalType": "uint256",
          "name": "amount",
          "type": "uint256"
        },
        {
          "indexed": false,
          "internalType": "address",
          "name": "token",
          "type": "address"
        }
      ],
      "name": "PaymentFunded",
      "type": "event"
    },
    {
      "anonymous": false,
      "inputs": [
        {
          "indexed": true,
          "internalType": "bytes32",
          "name": "paymentId",
          "type": "bytes32"
        },
        {
          "indexed": false,
          "internalType": "bool",
          "name": "hold",
          "type": "bool"
        }
      ],
      "name": "PaymentHoldSet",
      "type": "event"
    },
    {
      "anonymous": false,
      "inputs": [
        {
          "indexed": true,
          "internalType": "bytes32",
          "name": "paymentId",
          "type": "bytes32"
        },
        {
          "indexed": true,
          "internalType": "address",
          "name": "to",
          "type": "address"
        },
        {
          "indexed": false,
          "internalType": "uint256",
          "name": "amount",
          "type": "uint256"
        },
        {
          "indexed": false,
          "internalType": "address",
          "name": "token",
          "type": "address"
        }
      ],
      "name": "PaymentRefunded",
      "type": "event"
    },
    {
      "anonymous": false,
      "inputs": [
        {
          "indexed": true,
          "internalType": "bytes32",
          "name": "paymentId",
          "type": "bytes32"
        },
        {
          "indexed": true,
          "internalType": "address",
          "name": "to",
          "type": "address"
        },
        {
          "indexed": false,
          "internalType": "uint256",
          "name": "amount",
          "type": "uint256"
        },
        {
          "indexed": false,
          "internalType": "address",
          "name": "token",
          "type": "address"
        }
      ],
      "name": "PaymentReleased",
      "type": "event"
    },
    {
      "anonymous": false,
      "inputs": [
        {
          "indexed": true,
          "internalType": "bytes32",
          "name": "role",
          "type": "bytes32"
        },
        {
          "indexed": true,
          "internalType": "bytes32",
          "name": "previousAdminRole",
          "type": "bytes32"
        },
        {
          "indexed": true,
          "internalType": "bytes32",
          "name": "newAdminRole",
          "type": "bytes32"
        }
      ],
      "name": "RoleAdminChanged",
      "type": "event"
    },
    {
      "anonymous": false,
      "inputs": [
        {
          "indexed": true,
          "internalType": "bytes32",
          "name": "role",
          "type": "bytes32"
        },
        {
          "indexed": true,
          "internalType": "address",
          "name": "account",
          "type": "address"
        },
        {
          "indexed": true,
          "internalType": "address",
          "name": "sender",
          "type": "address"
        }
      ],
      "name": "RoleGranted",
      "type": "event"
    },
    {
      "anonymous": false,
      "inputs": [
        {
          "indexed": true,
          "internalType": "bytes32",
          "name": "role",
          "type": "bytes32"
        },
        {
          "indexed": true,
          "internalType": "address",
          "name": "account",
          "type": "address"
        },
        {
          "indexed": true,
          "internalType": "address",
          "name": "sender",
          "type": "address"
        }
      ],
      "name": "RoleRevoked",
      "type": "event"
    },
    {
      "anonymous": false,
      "inputs": [
        {
          "indexed": true,
          "internalType": "bytes32",
          "name": "paymentId",
          "type": "bytes32"
        },
        {
          "indexed": false,
          "internalType": "address",
          "name": "token",
          "type": "address"
        },
        {
          "indexed": false,
          "internalType": "address",
          "name": "payer",
          "type": "address"
        },
        {
          "indexed": false,
          "internalType": "uint256",
          "name": "amount",
          "type": "uint256"
        }
      ],
      "name": "StablecoinDeposited",
      "type": "event"
    },
    {
      "anonymous": false,
      "inputs": [
        {
          "indexed": true,
          "internalType": "bytes32",
          "name": "paymentId",
          "type": "bytes32"
        },
        {
          "indexed": false,
          "internalType": "address",
          "name": "token",
          "type": "address"
        },
        {
          "indexed": false,
          "internalType": "address",
          "name": "to",
          "type": "address"
        },
        {
          "indexed": false,
          "internalType": "uint256",
          "name": "amount",
          "type": "uint256"
        }
      ],
      "name": "StablecoinRefunded",
      "type": "event"
    },
    {
      "anonymous": false,
      "inputs": [
        {
          "indexed": true,
          "internalType": "bytes32",
          "name": "paymentId",
          "type": "bytes32"
        },
        {
          "indexed": false,
          "internalType": "address",
          "name": "token",
          "type": "address"
        },
        {
          "indexed": false,
          "internalType": "address",
          "name": "to",
          "type": "address"
        },
        {
          "indexed": false,
          "internalType": "uint256",
          "name": "amount",
          "type": "uint256"
        }
      ],
      "name": "StablecoinReleased",
      "type": "event"
    },
    {
      "anonymous": false,
      "inputs": [
        {
          "indexed": false,
          "internalType": "address",
          "name": "account",
          "type": "address"
        }
      ],
      "name": "Unpaused",
      "type": "event"
    },
    {
      "inputs": [],
      "name": "ARBITER_ROLE",
      "outputs": [
        {
          "internalType": "bytes32",
          "name": "",
          "type": "bytes32"
        }
      ],
      "stateMutability": "view",
      "type": "function",
      "constant": true
    },
    {
      "inputs": [],
      "name": "DEFAULT_ADMIN_ROLE",
      "outputs": [
        {
          "internalType": "bytes32",
          "name": "",
          "type": "bytes32"
        }
      ],
      "stateMutability": "view",
      "type": "function",
      "constant": true
    },
    {
      "inputs": [
        {
          "internalType": "bytes32",
          "name": "role",
          "type": "bytes32"
        }
      ],
      "name": "getRoleAdmin",
      "outputs": [
        {
          "internalType": "bytes32",
          "name": "",
          "type": "bytes32"
        }
      ],
      "stateMutability": "view",
      "type": "function",
      "constant": true
    },
    {
      "inputs": [
        {
          "internalType": "bytes32",
          "name": "role",
          "type": "bytes32"
        },
        {
          "internalType": "address",
          "name": "account",
          "type": "address"
        }
      ],
      "name": "grantRole",
      "outputs": [],
      "stateMutability": "nonpayable",
      "type": "function"
    },
    {
      "inputs": [
        {
          "internalType": "bytes32",
          "name": "role",
          "type": "bytes32"
        },
        {
          "internalType": "address",
          "name": "account",
          "type": "address"
        }
      ],
      "name": "hasRole",
      "outputs": [
        {
          "internalType": "bool",
          "name": "",
          "type": "bool"
        }
      ],
      "stateMutability": "view",
      "type": "function",
      "constant": true
    },
    {
      "inputs": [],
      "name": "paused",
      "outputs": [
        {
          "internalType": "bool",
          "name": "",
          "type": "bool"
        }
      ],
      "stateMutability": "view",
      "type": "function",
      "constant": true
    },
    {
      "inputs": [
        {
          "internalType": "bytes32",
          "name": "",
          "type": "bytes32"
        }
      ],
      "name": "payments",
      "outputs": [
        {
          "internalType": "address",
          "name": "payer",
          "type": "address"
        },
        {
          "internalType": "address",
          "name": "payee",
          "type": "address"
        },
        {
          "internalType": "address",
          "name": "token",
          "type": "address"
        },
        {
          "internalType": "uint256",
          "name": "amount",
          "type": "uint256"
        },
        {
          "internalType": "enum EscrowManager.Status",
          "name": "status",
          "type": "uint8"
        },
        {
          "internalType": "bool",
          "name": "hold",
          "type": "bool"
        }
      ],
      "stateMutability": "view",
      "type": "function",
      "constant": true
    },
    {
      "inputs": [
        {
          "internalType": "bytes32",
          "name": "role",
          "type": "bytes32"
        },
        {
          "internalType": "address",
          "name": "account",
          "type": "address"
        }
      ],
      "name": "renounceRole",
      "outputs": [],
      "stateMutability": "nonpayable",
      "type": "function"
    },
    {
      "inputs": [
        {
          "internalType": "bytes32",
          "name": "role",
          "type": "bytes32"
        },
        {
          "internalType": "address",
          "name": "account",
          "type": "address"
        }
      ],
      "name": "revokeRole",
      "outputs": [],
      "stateMutability": "nonpayable",
      "type": "function"
    },
    {
      "inputs": [
        {
          "internalType": "bytes4",
          "name": "interfaceId",
          "type": "bytes4"
        }
      ],
      "name": "supportsInterface",
      "outputs": [
        {
          "internalType": "bool",
          "name": "",
          "type": "bool"
        }
      ],
      "stateMutability": "view",
      "type": "function",
      "constant": true
    },
    {
      "stateMutability": "payable",
      "type": "receive",
      "payable": true
    },
    {
      "inputs": [
        {
          "internalType": "bytes32",
          "name": "paymentId",
          "type": "bytes32"
        },
        {
          "internalType": "address",
          "name": "payer",
          "type": "address"
        },
        {
          "internalType": "address",
          "name": "payee",
          "type": "address"
        },
        {
          "internalType": "address",
          "name": "token",
          "type": "address"
        },
        {
          "internalType": "uint256",
          "name": "amount",
          "type": "uint256"
        }
      ],
      "name": "createPayment",
      "outputs": [],
      "stateMutability": "nonpayable",
      "type": "function"
    },
    {
      "inputs": [
        {
          "internalType": "bytes32",
          "name": "paymentId",
          "type": "bytes32"
        }
      ],
      "name": "depositETH",
      "outputs": [],
      "stateMutability": "payable",
      "type": "function",
      "payable": true
    },
    {
      "inputs": [
        {
          "internalType": "bytes32",
          "name": "paymentId",
          "type": "bytes32"
        }
      ],
      "name": "depositERC20",
      "outputs": [],
      "stateMutability": "nonpayable",
      "type": "function"
    },
    {
      "inputs": [
        {
          "internalType": "bytes32",
          "name": "paymentId",
          "type": "bytes32"
        },
        {
          "internalType": "bool",
          "name": "hold_",
          "type": "bool"
        }
      ],
      "name": "setHold",
      "outputs": [],
      "stateMutability": "nonpayable",
      "type": "function"
    },
    {
      "inputs": [
        {
          "internalType": "bytes32",
          "name": "paymentId",
          "type": "bytes32"
        }
      ],
      "name": "release",
      "outputs": [],
      "stateMutability": "nonpayable",
      "type": "function"
    },
    {
      "inputs": [
        {
          "internalType": "bytes32",
          "name": "paymentId",
          "type": "bytes32"
        }
      ],
      "name": "refund",
      "outputs": [],
      "stateMutability": "nonpayable",
      "type": "function"
    },
    {
      "inputs": [],
      "name": "pause",
      "outputs": [],
      "stateMutability": "nonpayable",
      "type": "function"
    },
    {
      "inputs": [],
      "name": "unpause",
      "outputs": [],
      "stateMutability": "nonpayable",
      "type": "function"
    },
    {
      "inputs": [
        {
          "internalType": "bytes32",
          "name": "paymentId",
          "type": "bytes32"
        }
      ],
      "name": "getPayment",
      "outputs": [
        {
          "internalType": "address",
          "name": "payer",
          "type": "address"
        },
        {
          "internalType": "address",
          "name": "payee",
          "type": "address"
        },
        {
          "internalType": "address",
          "name": "token",
          "type": "address"
        },
        {
          "internalType": "uint256",
          "name": "amount",
          "type": "uint256"
        },
        {
          "internalType": "enum EscrowManager.Status",
          "name": "status",
          "type": "uint8"
        },
        {
          "internalType": "bool",
          "name": "hold",
          "type": "bool"
        }
      ],
      "stateMutability": "view",
      "type": "function",
      "constant": true
    },
    {
      "inputs": [
        {
          "internalType": "address",
          "name": "token",
          "type": "address"
        },
        {
          "internalType": "address",
          "name": "to",
          "type": "address"
        },
        {
          "internalType": "uint256",
          "name": "amount",
          "type": "uint256"
        }
      ],
      "name": "sweep",
      "outputs": [],
      "stateMutability": "nonpayable",
      "type": "function"
    }
  ],
  "bytecode": "0x608060405234801562000010575f80fd5b506040516200450138038062004501833981810160405281019062000036919062000306565b60015f819055505f60015f6101000a81548160ff0219169083151502179055505f73ffffffffffffffffffffffffffffffffffffffff168273ffffffffffffffffffffffffffffffffffffffff1603620000c7576040517f08c379a0000000000000000000000000000000000000000000000000000000008152600401620000be90620003a9565b60405180910390fd5b620000db5f801b836200014a60201b60201c565b5f73ffffffffffffffffffffffffffffffffffffffff168173ffffffffffffffffffffffffffffffffffffffff16146200014257620001417fbb08418a67729a078f87bbc8d02a770929bb68f5bfdf134ae2ead6ed38e2f4ae826200014a60201b60201c565b5b5050620003c9565b6200015c82826200023660201b60201c565b6200023257600160025f8481526020019081526020015f205f015f8373ffffffffffffffffffffffffffffffffffffffff1673ffffffffffffffffffffffffffffffffffffffff1681526020019081526020015f205f6101000a81548160ff021916908315150217905550620001d76200029a60201b60201c565b73ffffffffffffffffffffffffffffffffffffffff168173ffffffffffffffffffffffffffffffffffffffff16837f2f8788117e7eff1d82e926ec794901d17c78024a50270940304540a733656f0d60405160405180910390a45b5050565b5f60025f8481526020019081526020015f205f015f8373ffffffffffffffffffffffffffffffffffffffff1673ffffffffffffffffffffffffffffffffffffffff1681526020019081526020015f205f9054906101000a900460ff16905092915050565b5f33905090565b5f80fd5b5f73ffffffffffffffffffffffffffffffffffffffff82169050919050565b5f620002d082620002a5565b9050919050565b620002e281620002c4565b8114620002ed575f80fd5b50565b5f815190506200030081620002d7565b92915050565b5f80604083850312156200031f576200031e620002a1565b5b5f6200032e85828601620002f0565b92505060206200034185828601620002f0565b9150509250929050565b5f82825260208201905092915050565b7f61646d696e2072657175697265640000000000000000000000000000000000005f82015250565b5f62000391600e836200034b565b91506200039e826200035b565b602082019050919050565b5f6020820190508181035f830152620003c28162000383565b9050919050565b61412a80620003d75f395ff3fe608060405260043610610122575f3560e01c806362c067671161009f578063a217fddf11610063578063a217fddf146103ba578063a6dc0ba9146103e4578063d547741f1461040c578063d68d9d4e14610434578063e66eefc81461045057610129565b806362c06767146102f057806367d42a8b146103185780637249fbb6146103405780638456cb591461036857806391d148541461037e57610129565b806336568abe116100e657806336568abe146102365780633f4ba83a1461025e57806341f07bff146102745780634d104adf1461029c5780635c975abb146102c657610129565b806301ffc9a71461012d5780630716326d14610169578063248a9ca3146101aa578063262de374146101e65780632f2ff15d1461020e57610129565b3661012957005b5f80fd5b348015610138575f80fd5b50610153600480360381019061014e9190612dc3565b610491565b6040516101609190612e08565b60405180910390f35b348015610174575f80fd5b5061018f600480360381019061018a9190612e54565b61050a565b6040516101a196959493929190612f49565b60405180910390f35b3480156101b5575f80fd5b506101d060048036038101906101cb9190612e54565b6105b8565b6040516101dd9190612fb7565b60405180910390f35b3480156101f1575f80fd5b5061020c60048036038101906102079190613024565b6105d5565b005b348015610219575f80fd5b50610234600480360381019061022f919061309b565b6109e0565b005b348015610241575f80fd5b5061025c6004803603810190610257919061309b565b610a01565b005b348015610269575f80fd5b50610272610a84565b005b34801561027f575f80fd5b5061029a60048036038101906102959190613103565b610ad9565b005b3480156102a7575f80fd5b506102b0610c52565b6040516102bd9190612fb7565b60405180910390f35b3480156102d1575f80fd5b506102da610c76565b6040516102e79190612e08565b60405180910390f35b3480156102fb575f80fd5b5061031660048036038101906103119190613141565b610c8b565b005b348015610323575f80fd5b5061033e60048036038101906103399190612e54565b610ee5565b005b34801561034b575f80fd5b5061036660048036038101906103619190612e54565b61150a565b005b348015610373575f80fd5b5061037c611b28565b005b348015610389575f80fd5b506103a4600480360381019061039f919061309b565b611b7d565b6040516103b19190612e08565b60405180910390f35b3480156103c5575f80fd5b506103ce611be1565b6040516103db9190612fb7565b60405180910390f35b3480156103ef575f80fd5b5061040a60048036038101906104059190612e54565b611be7565b005b348015610417575f80fd5b50610432600480360381019061042d919061309b565b6121af565b005b61044e60048036038101906104499190612e54565b6121d0565b005b34801561045b575f80fd5b5061047660048036038101906104719190612e54565b6124ea565b60405161048896959493929190612f49565b60405180910390f35b5f7f7965db0b000000000000000000000000000000000000000000000000000000007bffffffffffffffffffffffffffffffffffffffffffffffffffffffff1916827bffffffffffffffffffffffffffffffffffffffffffffffffffffffff1916148061050357506105028261269f565b5b9050919050565b6003602052805f5260405f205f91509050805f015f9054906101000a900473ffffffffffffffffffffffffffffffffffffffff1690806001015f9054906101000a900473ffffffffffffffffffffffffffffffffffffffff1690806002015f9054906101000a900473ffffffffffffffffffffffffffffffffffffffff1690806003015490806004015f9054906101000a900460ff16908060040160019054906101000a900460ff16905086565b5f60025f8381526020019081526020015f20600101549050919050565b6105e15f801b33611b7d565b610620576040517f08c379a0000000000000000000000000000000000000000000000000000000008152600401610617906131eb565b60405180910390fd5b610628612708565b5f73ffffffffffffffffffffffffffffffffffffffff1660035f8781526020019081526020015f205f015f9054906101000a900473ffffffffffffffffffffffffffffffffffffffff1673ffffffffffffffffffffffffffffffffffffffff16146106c8576040517f08c379a00000000000000000000000000000000000000000000000000000000081526004016106bf90613253565b60405180910390fd5b5f73ffffffffffffffffffffffffffffffffffffffff168473ffffffffffffffffffffffffffffffffffffffff161415801561073057505f73ffffffffffffffffffffffffffffffffffffffff168373ffffffffffffffffffffffffffffffffffffffff1614155b61076f576040517f08c379a0000000000000000000000000000000000000000000000000000000008152600401610766906132bb565b60405180910390fd5b5f81116107b1576040517f08c379a00000000000000000000000000000000000000000000000000000000081526004016107a890613323565b60405180910390fd5b6040518060c001604052808573ffffffffffffffffffffffffffffffffffffffff1681526020018473ffffffffffffffffffffffffffffffffffffffff1681526020018373ffffffffffffffffffffffffffffffffffffffff1681526020018281526020015f600381111561082957610828612ed6565b5b81526020015f151581525060035f8781526020019081526020015f205f820151815f015f6101000a81548173ffffffffffffffffffffffffffffffffffffffff021916908373ffffffffffffffffffffffffffffffffffffffff1602179055506020820151816001015f6101000a81548173ffffffffffffffffffffffffffffffffffffffff021916908373ffffffffffffffffffffffffffffffffffffffff1602179055506040820151816002015f6101000a81548173ffffffffffffffffffffffffffffffffffffffff021916908373ffffffffffffffffffffffffffffffffffffffff160217905550606082015181600301556080820151816004015f6101000a81548160ff0219169083600381111561094957610948612ed6565b5b021790555060a08201518160040160016101000a81548160ff0219169083151502179055509050508273ffffffffffffffffffffffffffffffffffffffff168473ffffffffffffffffffffffffffffffffffffffff16867fed20bbac12b69045d7d4cc91b5175b11eef575843dc5f4d903662629759f77c485856040516109d1929190613341565b60405180910390a45050505050565b6109e9826105b8565b6109f281612752565b6109fc8383612766565b505050565b610a09612841565b73ffffffffffffffffffffffffffffffffffffffff168173ffffffffffffffffffffffffffffffffffffffff1614610a76576040517f08c379a0000000000000000000000000000000000000000000000000000000008152600401610a6d906133d8565b60405180910390fd5b610a808282612848565b5050565b610a905f801b33611b7d565b610acf576040517f08c379a0000000000000000000000000000000000000000000000000000000008152600401610ac6906131eb565b60405180910390fd5b610ad7612923565b565b610b037fbb08418a67729a078f87bbc8d02a770929bb68f5bfdf134ae2ead6ed38e2f4ae33611b7d565b80610b165750610b155f801b33611b7d565b5b610b55576040517f08c379a0000000000000000000000000000000000000000000000000000000008152600401610b4c90613440565b60405180910390fd5b5f60035f8481526020019081526020015f2090505f73ffffffffffffffffffffffffffffffffffffffff16815f015f9054906101000a900473ffffffffffffffffffffffffffffffffffffffff1673ffffffffffffffffffffffffffffffffffffffff1603610bf9576040517f08c379a0000000000000000000000000000000000000000000000000000000008152600401610bf0906134a8565b60405180910390fd5b818160040160016101000a81548160ff021916908315150217905550827ff5b0f186e1990ea1884e38372d3c199280ad5d16ab3690ea2ab1f19d39968ffb83604051610c459190612e08565b60405180910390a2505050565b7fbb08418a67729a078f87bbc8d02a770929bb68f5bfdf134ae2ead6ed38e2f4ae81565b5f60015f9054906101000a900460ff16905090565b610c975f801b33611b7d565b610cd6576040517f08c379a0000000000000000000000000000000000000000000000000000000008152600401610ccd906131eb565b60405180910390fd5b5f73ffffffffffffffffffffffffffffffffffffffff168273ffffffffffffffffffffffffffffffffffffffff1603610d44576040517f08c379a0000000000000000000000000000000000000000000000000000000008152600401610d3b90613510565b60405180910390fd5b5f73ffffffffffffffffffffffffffffffffffffffff168373ffffffffffffffffffffffffffffffffffffffff1603610e25575f8273ffffffffffffffffffffffffffffffffffffffff1682604051610d9c9061355b565b5f6040518083038185875af1925050503d805f8114610dd6576040519150601f19603f3d011682016040523d82523d5f602084013e610ddb565b606091505b5050905080610e1f576040517f08c379a0000000000000000000000000000000000000000000000000000000008152600401610e16906135b9565b60405180910390fd5b50610ee0565b8273ffffffffffffffffffffffffffffffffffffffff1663a9059cbb83836040518363ffffffff1660e01b8152600401610e60929190613341565b6020604051808303815f875af1158015610e7c573d5f803e3d5ffd5b505050506040513d601f19601f82011682018060405250810190610ea091906135eb565b610edf576040517f08c379a0000000000000000000000000000000000000000000000000000000008152600401610ed690613660565b60405180910390fd5b5b505050565b610ef15f801b33611b7d565b610f30576040517f08c379a0000000000000000000000000000000000000000000000000000000008152600401610f27906131eb565b60405180910390fd5b610f38612984565b610f40612708565b5f60035f8381526020019081526020015f20905060016003811115610f6857610f67612ed6565b5b816004015f9054906101000a900460ff166003811115610f8b57610f8a612ed6565b5b14610fcb576040517f08c379a0000000000000000000000000000000000000000000000000000000008152600401610fc2906136c8565b60405180910390fd5b8060040160019054906101000a900460ff161561101d576040517f08c379a000000000000000000000000000000000000000000000000000000000815260040161101490613730565b60405180910390fd5b6002816004015f6101000a81548160ff0219169083600381111561104457611043612ed6565b5b02179055505f73ffffffffffffffffffffffffffffffffffffffff16816002015f9054906101000a900473ffffffffffffffffffffffffffffffffffffffff1673ffffffffffffffffffffffffffffffffffffffff1603611262575f816001015f9054906101000a900473ffffffffffffffffffffffffffffffffffffffff1673ffffffffffffffffffffffffffffffffffffffff1682600301546040516110eb9061355b565b5f6040518083038185875af1925050503d805f8114611125576040519150601f19603f3d011682016040523d82523d5f602084013e61112a565b606091505b505090508061116e576040517f08c379a000000000000000000000000000000000000000000000000000000000815260040161116590613798565b60405180910390fd5b816001015f9054906101000a900473ffffffffffffffffffffffffffffffffffffffff1673ffffffffffffffffffffffffffffffffffffffff16837fc58c91143d08309bb2ca737c19533b8193f5aa8fae0223797c5f067f5006c5c884600301545f6040516111de9291906137b6565b60405180910390a3816001015f9054906101000a900473ffffffffffffffffffffffffffffffffffffffff1673ffffffffffffffffffffffffffffffffffffffff16837fdf599e8936e1e933b719592df82ed7d9bddc82a61736b4e88766d3b9540bbc5d846003015460405161125491906137fd565b60405180910390a3506114fe565b806002015f9054906101000a900473ffffffffffffffffffffffffffffffffffffffff1673ffffffffffffffffffffffffffffffffffffffff1663a9059cbb826001015f9054906101000a900473ffffffffffffffffffffffffffffffffffffffff1683600301546040518363ffffffff1660e01b81526004016112e7929190613341565b6020604051808303815f875af1158015611303573d5f803e3d5ffd5b505050506040513d601f19601f8201168201806040525081019061132791906135eb565b611366576040517f08c379a000000000000000000000000000000000000000000000000000000000815260040161135d90613873565b60405180910390fd5b806001015f9054906101000a900473ffffffffffffffffffffffffffffffffffffffff1673ffffffffffffffffffffffffffffffffffffffff16827fc58c91143d08309bb2ca737c19533b8193f5aa8fae0223797c5f067f5006c5c88360030154846002015f9054906101000a900473ffffffffffffffffffffffffffffffffffffffff166040516113f99291906137b6565b60405180910390a3817f9ddb749b582ad29c52765b1bf0fe323fb89a74449e2b5f3c80dc1311301e4d92826002015f9054906101000a900473ffffffffffffffffffffffffffffffffffffffff16836001015f9054906101000a900473ffffffffffffffffffffffffffffffffffffffff16846003015460405161147f93929190613891565b60405180910390a2806001015f9054906101000a900473ffffffffffffffffffffffffffffffffffffffff1673ffffffffffffffffffffffffffffffffffffffff16827fdf599e8936e1e933b719592df82ed7d9bddc82a61736b4e88766d3b9540bbc5d83600301546040516114f591906137fd565b60405180910390a35b506115076129d1565b50565b6115165f801b33611b7d565b611555576040517f08c379a000000000000000000000000000000000000000000000000000000000815260040161154c906131eb565b60405180910390fd5b61155d612984565b611565612708565b5f60035f8381526020019081526020015f2090506001600381111561158d5761158c612ed6565b5b816004015f9054906101000a900460ff1660038111156115b0576115af612ed6565b5b146115f0576040517f08c379a00000000000000000000000000000000000000000000000000000000081526004016115e7906136c8565b60405180910390fd5b8060040160019054906101000a900460ff1615611642576040517f08c379a000000000000000000000000000000000000000000000000000000000815260040161163990613730565b60405180910390fd5b6003816004015f6101000a81548160ff0219169083600381111561166957611668612ed6565b5b02179055505f73ffffffffffffffffffffffffffffffffffffffff16816002015f9054906101000a900473ffffffffffffffffffffffffffffffffffffffff1673ffffffffffffffffffffffffffffffffffffffff1603611884575f815f015f9054906101000a900473ffffffffffffffffffffffffffffffffffffffff1673ffffffffffffffffffffffffffffffffffffffff16826003015460405161170f9061355b565b5f6040518083038185875af1925050503d805f8114611749576040519150601f19603f3d011682016040523d82523d5f602084013e61174e565b606091505b5050905080611792576040517f08c379a000000000000000000000000000000000000000000000000000000000815260040161178990613910565b60405180910390fd5b815f015f9054906101000a900473ffffffffffffffffffffffffffffffffffffffff1673ffffffffffffffffffffffffffffffffffffffff16837fed36ebbcf0f4bdc84ed7f0eee50fc4a563f968ca08388fd6d2793a0f594f7bf484600301545f6040516118019291906137b6565b60405180910390a3815f015f9054906101000a900473ffffffffffffffffffffffffffffffffffffffff1673ffffffffffffffffffffffffffffffffffffffff16837f7911d7d2d92b42246d771b834eda9541c3f49c7c693b0138bbafd7361af9be08846003015460405161187691906137fd565b60405180910390a350611b1c565b806002015f9054906101000a900473ffffffffffffffffffffffffffffffffffffffff1673ffffffffffffffffffffffffffffffffffffffff1663a9059cbb825f015f9054906101000a900473ffffffffffffffffffffffffffffffffffffffff1683600301546040518363ffffffff1660e01b8152600401611908929190613341565b6020604051808303815f875af1158015611924573d5f803e3d5ffd5b505050506040513d601f19601f8201168201806040525081019061194891906135eb565b611987576040517f08c379a000000000000000000000000000000000000000000000000000000000815260040161197e90613978565b60405180910390fd5b805f015f9054906101000a900473ffffffffffffffffffffffffffffffffffffffff1673ffffffffffffffffffffffffffffffffffffffff16827fed36ebbcf0f4bdc84ed7f0eee50fc4a563f968ca08388fd6d2793a0f594f7bf48360030154846002015f9054906101000a900473ffffffffffffffffffffffffffffffffffffffff16604051611a199291906137b6565b60405180910390a3817f563419b1e0580a4b7fb4dd5b2570d106d47d3a7f87e10a60c2a74e3932d2a272826002015f9054906101000a900473ffffffffffffffffffffffffffffffffffffffff16835f015f9054906101000a900473ffffffffffffffffffffffffffffffffffffffff168460030154604051611a9e93929190613891565b60405180910390a2805f015f9054906101000a900473ffffffffffffffffffffffffffffffffffffffff1673ffffffffffffffffffffffffffffffffffffffff16827f7911d7d2d92b42246d771b834eda9541c3f49c7c693b0138bbafd7361af9be088360030154604051611b1391906137fd565b60405180910390a35b50611b256129d1565b50565b611b345f801b33611b7d565b611b73576040517f08c379a0000000000000000000000000000000000000000000000000000000008152600401611b6a906131eb565b60405180910390fd5b611b7b6129da565b565b5f60025f8481526020019081526020015f205f015f8373ffffffffffffffffffffffffffffffffffffffff1673ffffffffffffffffffffffffffffffffffffffff1681526020019081526020015f205f9054906101000a900460ff16905092915050565b5f801b81565b611bef612984565b611bf7612708565b5f60035f8381526020019081526020015f2090505f73ffffffffffffffffffffffffffffffffffffffff16815f015f9054906101000a900473ffffffffffffffffffffffffffffffffffffffff1673ffffffffffffffffffffffffffffffffffffffff1603611c9b576040517f08c379a0000000000000000000000000000000000000000000000000000000008152600401611c92906134a8565b60405180910390fd5b5f73ffffffffffffffffffffffffffffffffffffffff16816002015f9054906101000a900473ffffffffffffffffffffffffffffffffffffffff1673ffffffffffffffffffffffffffffffffffffffff1603611d2c576040517f08c379a0000000000000000000000000000000000000000000000000000000008152600401611d23906139e0565b60405180910390fd5b805f015f9054906101000a900473ffffffffffffffffffffffffffffffffffffffff1673ffffffffffffffffffffffffffffffffffffffff163373ffffffffffffffffffffffffffffffffffffffff1614611dbc576040517f08c379a0000000000000000000000000000000000000000000000000000000008152600401611db390613a48565b60405180910390fd5b5f6003811115611dcf57611dce612ed6565b5b816004015f9054906101000a900460ff166003811115611df257611df1612ed6565b5b14611e32576040517f08c379a0000000000000000000000000000000000000000000000000000000008152600401611e2990613ab0565b60405180910390fd5b5f816002015f9054906101000a900473ffffffffffffffffffffffffffffffffffffffff1673ffffffffffffffffffffffffffffffffffffffff166370a08231306040518263ffffffff1660e01b8152600401611e8f9190613ace565b602060405180830381865afa158015611eaa573d5f803e3d5ffd5b505050506040513d601f19601f82011682018060405250810190611ece9190613afb565b9050816002015f9054906101000a900473ffffffffffffffffffffffffffffffffffffffff1673ffffffffffffffffffffffffffffffffffffffff166323b872dd333085600301546040518463ffffffff1660e01b8152600401611f3493929190613891565b6020604051808303815f875af1158015611f50573d5f803e3d5ffd5b505050506040513d601f19601f82011682018060405250810190611f7491906135eb565b611fb3576040517f08c379a0000000000000000000000000000000000000000000000000000000008152600401611faa90613b70565b60405180910390fd5b5f81836002015f9054906101000a900473ffffffffffffffffffffffffffffffffffffffff1673ffffffffffffffffffffffffffffffffffffffff166370a08231306040518263ffffffff1660e01b81526004016120119190613ace565b602060405180830381865afa15801561202c573d5f803e3d5ffd5b505050506040513d601f19601f820116820180604052508101906120509190613afb565b61205a9190613bbb565b9050826003015481146120a2576040517f08c379a000000000000000000000000000000000000000000000000000000000815260040161209990613c38565b60405180910390fd5b6001836004015f6101000a81548160ff021916908360038111156120c9576120c8612ed6565b5b02179055503373ffffffffffffffffffffffffffffffffffffffff16847fe6589117d3e5da9be5d0fc9d1c86597a062bdef651732d67096d92718c898cc583866002015f9054906101000a900473ffffffffffffffffffffffffffffffffffffffff1660405161213a9291906137b6565b60405180910390a3837f25559747ad43939a7bc732f917fa4e6f1d88e8349dd0a03d6cd13ac0c7aba3fe846002015f9054906101000a900473ffffffffffffffffffffffffffffffffffffffff16338460405161219993929190613891565b60405180910390a25050506121ac6129d1565b50565b6121b8826105b8565b6121c181612752565b6121cb8383612848565b505050565b6121d8612984565b6121e0612708565b5f60035f8381526020019081526020015f2090505f73ffffffffffffffffffffffffffffffffffffffff16815f015f9054906101000a900473ffffffffffffffffffffffffffffffffffffffff1673ffffffffffffffffffffffffffffffffffffffff1603612284576040517f08c379a000000000000000000000000000000000000000000000000000000000815260040161227b906134a8565b60405180910390fd5b5f73ffffffffffffffffffffffffffffffffffffffff16816002015f9054906101000a900473ffffffffffffffffffffffffffffffffffffffff1673ffffffffffffffffffffffffffffffffffffffff1614612315576040517f08c379a000000000000000000000000000000000000000000000000000000000815260040161230c90613ca0565b60405180910390fd5b805f015f9054906101000a900473ffffffffffffffffffffffffffffffffffffffff1673ffffffffffffffffffffffffffffffffffffffff163373ffffffffffffffffffffffffffffffffffffffff16146123a5576040517f08c379a000000000000000000000000000000000000000000000000000000000815260040161239c90613a48565b60405180910390fd5b5f60038111156123b8576123b7612ed6565b5b816004015f9054906101000a900460ff1660038111156123db576123da612ed6565b5b1461241b576040517f08c379a000000000000000000000000000000000000000000000000000000000815260040161241290613ab0565b60405180910390fd5b80600301543414612461576040517f08c379a000000000000000000000000000000000000000000000000000000000815260040161245890613c38565b60405180910390fd5b6001816004015f6101000a81548160ff0219169083600381111561248857612487612ed6565b5b02179055503373ffffffffffffffffffffffffffffffffffffffff16827fe6589117d3e5da9be5d0fc9d1c86597a062bdef651732d67096d92718c898cc5345f6040516124d69291906137b6565b60405180910390a3506124e76129d1565b50565b5f805f805f805f60035f8981526020019081526020015f206040518060c00160405290815f82015f9054906101000a900473ffffffffffffffffffffffffffffffffffffffff1673ffffffffffffffffffffffffffffffffffffffff1673ffffffffffffffffffffffffffffffffffffffff168152602001600182015f9054906101000a900473ffffffffffffffffffffffffffffffffffffffff1673ffffffffffffffffffffffffffffffffffffffff1673ffffffffffffffffffffffffffffffffffffffff168152602001600282015f9054906101000a900473ffffffffffffffffffffffffffffffffffffffff1673ffffffffffffffffffffffffffffffffffffffff1673ffffffffffffffffffffffffffffffffffffffff16815260200160038201548152602001600482015f9054906101000a900460ff16600381111561263957612638612ed6565b5b600381111561264b5761264a612ed6565b5b81526020016004820160019054906101000a900460ff1615151515815250509050805f015181602001518260400151836060015184608001518560a001519650965096509650965096505091939550919395565b5f7f01ffc9a7000000000000000000000000000000000000000000000000000000007bffffffffffffffffffffffffffffffffffffffffffffffffffffffff1916827bffffffffffffffffffffffffffffffffffffffffffffffffffffffff1916149050919050565b612710610c76565b15612750576040517f08c379a000000000000000000000000000000000000000000000000000000000815260040161274790613d08565b60405180910390fd5b565b6127638161275e612841565b612a3b565b50565b6127708282611b7d565b61283d57600160025f8481526020019081526020015f205f015f8373ffffffffffffffffffffffffffffffffffffffff1673ffffffffffffffffffffffffffffffffffffffff1681526020019081526020015f205f6101000a81548160ff0219169083151502179055506127e2612841565b73ffffffffffffffffffffffffffffffffffffffff168173ffffffffffffffffffffffffffffffffffffffff16837f2f8788117e7eff1d82e926ec794901d17c78024a50270940304540a733656f0d60405160405180910390a45b5050565b5f33905090565b6128528282611b7d565b1561291f575f60025f8481526020019081526020015f205f015f8373ffffffffffffffffffffffffffffffffffffffff1673ffffffffffffffffffffffffffffffffffffffff1681526020019081526020015f205f6101000a81548160ff0219169083151502179055506128c4612841565b73ffffffffffffffffffffffffffffffffffffffff168173ffffffffffffffffffffffffffffffffffffffff16837ff6391f5c32d9c69d2a47ea670b442974b53935d1edc7fd64eb21e047a839171b60405160405180910390a45b5050565b61292b612abf565b5f60015f6101000a81548160ff0219169083151502179055507f5db9ee0a495bf2e6ff9c91a7834c1ba4fdd244a5e8aa4e537bd38aeae4b073aa61296d612841565b60405161297a9190613ace565b60405180910390a1565b60025f54036129c8576040517f08c379a00000000000000000000000000000000000000000000000000000000081526004016129bf90613d70565b60405180910390fd5b60025f81905550565b60015f81905550565b6129e2612708565b6001805f6101000a81548160ff0219169083151502179055507f62e78cea01bee320cd4e420270b5ea74000d11b0c9f74754ebdbfc544b05a258612a24612841565b604051612a319190613ace565b60405180910390a1565b612a458282611b7d565b612abb57612a5281612b08565b612a5f835f1c6020612b35565b604051602001612a70929190613e8e565b6040516020818303038152906040526040517f08c379a0000000000000000000000000000000000000000000000000000000008152600401612ab29190613f0f565b60405180910390fd5b5050565b612ac7610c76565b612b06576040517f08c379a0000000000000000000000000000000000000000000000000000000008152600401612afd90613f79565b60405180910390fd5b565b6060612b2e8273ffffffffffffffffffffffffffffffffffffffff16601460ff16612b35565b9050919050565b60605f6002836002612b479190613f97565b612b519190613fd8565b67ffffffffffffffff811115612b6a57612b6961400b565b5b6040519080825280601f01601f191660200182016040528015612b9c5781602001600182028036833780820191505090505b5090507f3000000000000000000000000000000000000000000000000000000000000000815f81518110612bd357612bd2614038565b5b60200101907effffffffffffffffffffffffffffffffffffffffffffffffffffffffffffff191690815f1a9053507f780000000000000000000000000000000000000000000000000000000000000081600181518110612c3657612c35614038565b5b60200101907effffffffffffffffffffffffffffffffffffffffffffffffffffffffffffff191690815f1a9053505f6001846002612c749190613f97565b612c7e9190613fd8565b90505b6001811115612d1d577f3031323334353637383961626364656600000000000000000000000000000000600f861660108110612cc057612cbf614038565b5b1a60f81b828281518110612cd757612cd6614038565b5b60200101907effffffffffffffffffffffffffffffffffffffffffffffffffffffffffffff191690815f1a905350600485901c945080612d1690614065565b9050612c81565b505f8414612d60576040517f08c379a0000000000000000000000000000000000000000000000000000000008152600401612d57906140d6565b60405180910390fd5b8091505092915050565b5f80fd5b5f7fffffffff0000000000000000000000000000000000000000000000000000000082169050919050565b612da281612d6e565b8114612dac575f80fd5b50565b5f81359050612dbd81612d99565b92915050565b5f60208284031215612dd857612dd7612d6a565b5b5f612de584828501612daf565b91505092915050565b5f8115159050919050565b612e0281612dee565b82525050565b5f602082019050612e1b5f830184612df9565b92915050565b5f819050919050565b612e3381612e21565b8114612e3d575f80fd5b50565b5f81359050612e4e81612e2a565b92915050565b5f60208284031215612e6957612e68612d6a565b5b5f612e7684828501612e40565b91505092915050565b5f73ffffffffffffffffffffffffffffffffffffffff82169050919050565b5f612ea882612e7f565b9050919050565b612eb881612e9e565b82525050565b5f819050919050565b612ed081612ebe565b82525050565b7f4e487b71000000000000000000000000000000000000000000000000000000005f52602160045260245ffd5b60048110612f1457612f13612ed6565b5b50565b5f819050612f2482612f03565b919050565b5f612f3382612f17565b9050919050565b612f4381612f29565b82525050565b5f60c082019050612f5c5f830189612eaf565b612f696020830188612eaf565b612f766040830187612eaf565b612f836060830186612ec7565b612f906080830185612f3a565b612f9d60a0830184612df9565b979650505050505050565b612fb181612e21565b82525050565b5f602082019050612fca5f830184612fa8565b92915050565b612fd981612e9e565b8114612fe3575f80fd5b50565b5f81359050612ff481612fd0565b92915050565b61300381612ebe565b811461300d575f80fd5b50565b5f8135905061301e81612ffa565b92915050565b5f805f805f60a0868803121561303d5761303c612d6a565b5b5f61304a88828901612e40565b955050602061305b88828901612fe6565b945050604061306c88828901612fe6565b935050606061307d88828901612fe6565b925050608061308e88828901613010565b9150509295509295909350565b5f80604083850312156130b1576130b0612d6a565b5b5f6130be85828601612e40565b92505060206130cf85828601612fe6565b9150509250929050565b6130e281612dee565b81146130ec575f80fd5b50565b5f813590506130fd816130d9565b92915050565b5f806040838503121561311957613118612d6a565b5b5f61312685828601612e40565b9250506020613137858286016130ef565b9150509250929050565b5f805f6060848603121561315857613157612d6a565b5b5f61316586828701612fe6565b935050602061317686828701612fe6565b925050604061318786828701613010565b9150509250925092565b5f82825260208201905092915050565b7f4e6f742061646d696e00000000000000000000000000000000000000000000005f82015250565b5f6131d5600983613191565b91506131e0826131a1565b602082019050919050565b5f6020820190508181035f830152613202816131c9565b9050919050565b7f5061796d656e74206578697374730000000000000000000000000000000000005f82015250565b5f61323d600e83613191565b915061324882613209565b602082019050919050565b5f6020820190508181035f83015261326a81613231565b9050919050565b7f496e76616c6964206164647265737365730000000000000000000000000000005f82015250565b5f6132a5601183613191565b91506132b082613271565b602082019050919050565b5f6020820190508181035f8301526132d281613299565b9050919050565b7f496e76616c696420616d6f756e740000000000000000000000000000000000005f82015250565b5f61330d600e83613191565b9150613318826132d9565b602082019050919050565b5f6020820190508181035f83015261333a81613301565b9050919050565b5f6040820190506133545f830185612eaf565b6133616020830184612ec7565b9392505050565b7f416363657373436f6e74726f6c3a2063616e206f6e6c792072656e6f756e63655f8201527f20726f6c657320666f722073656c660000000000000000000000000000000000602082015250565b5f6133c2602f83613191565b91506133cd82613368565b604082019050919050565b5f6020820190508181035f8301526133ef816133b6565b9050919050565b7f4e6f7420617262697465722f61646d696e0000000000000000000000000000005f82015250565b5f61342a601183613191565b9150613435826133f6565b602082019050919050565b5f6020820190508181035f8301526134578161341e565b9050919050565b7f4e6f207061796d656e74000000000000000000000000000000000000000000005f82015250565b5f613492600a83613191565b915061349d8261345e565b602082019050919050565b5f6020820190508181035f8301526134bf81613486565b9050919050565b7f62616420746f00000000000000000000000000000000000000000000000000005f82015250565b5f6134fa600683613191565b9150613505826134c6565b602082019050919050565b5f6020820190508181035f830152613527816134ee565b9050919050565b5f81905092915050565b50565b5f6135465f8361352e565b915061355182613538565b5f82019050919050565b5f6135658261353b565b9150819050919050565b7f455448207377656570206661696c6564000000000000000000000000000000005f82015250565b5f6135a3601083613191565b91506135ae8261356f565b602082019050919050565b5f6020820190508181035f8301526135d081613597565b9050919050565b5f815190506135e5816130d9565b92915050565b5f60208284031215613600576135ff612d6a565b5b5f61360d848285016135d7565b91505092915050565b7f4552433230207377656570206661696c656400000000000000000000000000005f82015250565b5f61364a601283613191565b915061365582613616565b602082019050919050565b5f6020820190508181035f8301526136778161363e565b9050919050565b7f4e6f742066756e646564000000000000000000000000000000000000000000005f82015250565b5f6136b2600a83613191565b91506136bd8261367e565b602082019050919050565b5f6020820190508181035f8301526136df816136a6565b9050919050565b7f4f6e20686f6c64000000000000000000000000000000000000000000000000005f82015250565b5f61371a600783613191565b9150613725826136e6565b602082019050919050565b5f6020820190508181035f8301526137478161370e565b9050919050565b7f455448207472616e73666572206661696c6564000000000000000000000000005f82015250565b5f613782601383613191565b915061378d8261374e565b602082019050919050565b5f6020820190508181035f8301526137af81613776565b9050919050565b5f6040820190506137c95f830185612ec7565b6137d66020830184612eaf565b9392505050565b5f6137e85f83613191565b91506137f382613538565b5f82019050919050565b5f6040820190506138105f830184612ec7565b8181036020830152613821816137dd565b905092915050565b7f4552433230207472616e73666572206661696c656400000000000000000000005f82015250565b5f61385d601583613191565b915061386882613829565b602082019050919050565b5f6020820190508181035f83015261388a81613851565b9050919050565b5f6060820190506138a45f830186612eaf565b6138b16020830185612eaf565b6138be6040830184612ec7565b949350505050565b7f45544820726566756e64206661696c65640000000000000000000000000000005f82015250565b5f6138fa601183613191565b9150613905826138c6565b602082019050919050565b5f6020820190508181035f830152613927816138ee565b9050919050565b7f455243323020726566756e64206661696c6564000000000000000000000000005f82015250565b5f613962601383613191565b915061396d8261392e565b602082019050919050565b5f6020820190508181035f83015261398f81613956565b9050919050565b7f4e6f7420746f6b656e207061796d656e740000000000000000000000000000005f82015250565b5f6139ca601183613191565b91506139d582613996565b602082019050919050565b5f6020820190508181035f8301526139f7816139be565b9050919050565b7f4f6e6c79207061796572000000000000000000000000000000000000000000005f82015250565b5f613a32600a83613191565b9150613a3d826139fe565b602082019050919050565b5f6020820190508181035f830152613a5f81613a26565b9050919050565b7f57726f6e672073746174757300000000000000000000000000000000000000005f82015250565b5f613a9a600c83613191565b9150613aa582613a66565b602082019050919050565b5f6020820190508181035f830152613ac781613a8e565b9050919050565b5f602082019050613ae15f830184612eaf565b92915050565b5f81519050613af581612ffa565b92915050565b5f60208284031215613b1057613b0f612d6a565b5b5f613b1d84828501613ae7565b91505092915050565b7f5472616e73666572206661696c656400000000000000000000000000000000005f82015250565b5f613b5a600f83613191565b9150613b6582613b26565b602082019050919050565b5f6020820190508181035f830152613b8781613b4e565b9050919050565b7f4e487b71000000000000000000000000000000000000000000000000000000005f52601160045260245ffd5b5f613bc582612ebe565b9150613bd083612ebe565b9250828203905081811115613be857613be7613b8e565b5b92915050565b7f416d6f756e74206d69736d6174636800000000000000000000000000000000005f82015250565b5f613c22600f83613191565b9150613c2d82613bee565b602082019050919050565b5f6020820190508181035f830152613c4f81613c16565b9050919050565b7f4e6f7420455448207061796d656e7400000000000000000000000000000000005f82015250565b5f613c8a600f83613191565b9150613c9582613c56565b602082019050919050565b5f6020820190508181035f830152613cb781613c7e565b9050919050565b7f5061757361626c653a20706175736564000000000000000000000000000000005f82015250565b5f613cf2601083613191565b9150613cfd82613cbe565b602082019050919050565b5f6020820190508181035f830152613d1f81613ce6565b9050919050565b7f5265656e7472616e637947756172643a207265656e7472616e742063616c6c005f82015250565b5f613d5a601f83613191565b9150613d6582613d26565b602082019050919050565b5f6020820190508181035f830152613d8781613d4e565b9050919050565b5f81905092915050565b7f416363657373436f6e74726f6c3a206163636f756e74200000000000000000005f82015250565b5f613dcc601783613d8e565b9150613dd782613d98565b601782019050919050565b5f81519050919050565b5f5b83811015613e09578082015181840152602081019050613dee565b5f8484015250505050565b5f613e1e82613de2565b613e288185613d8e565b9350613e38818560208601613dec565b80840191505092915050565b7f206973206d697373696e6720726f6c65200000000000000000000000000000005f82015250565b5f613e78601183613d8e565b9150613e8382613e44565b601182019050919050565b5f613e9882613dc0565b9150613ea48285613e14565b9150613eaf82613e6c565b9150613ebb8284613e14565b91508190509392505050565b5f601f19601f8301169050919050565b5f613ee182613de2565b613eeb8185613191565b9350613efb818560208601613dec565b613f0481613ec7565b840191505092915050565b5f6020820190508181035f830152613f278184613ed7565b905092915050565b7f5061757361626c653a206e6f74207061757365640000000000000000000000005f82015250565b5f613f63601483613191565b9150613f6e82613f2f565b602082019050919050565b5f6020820190508181035f830152613f9081613f57565b9050919050565b5f613fa182612ebe565b9150613fac83612ebe565b9250828202613fba81612ebe565b91508282048414831517613fd157613fd0613b8e565b5b5092915050565b5f613fe282612ebe565b9150613fed83612ebe565b925082820190508082111561400557614004613b8e565b5b92915050565b7f4e487b71000000000000000000000000000000000000000000000000000000005f52604160045260245ffd5b7f4e487b71000000000000000000000000000000000000000000000000000000005f52603260045260245ffd5b5f61406f82612ebe565b91505f820361408157614080613b8e565b5b600182039050919050565b7f537472696e67733a20686578206c656e67746820696e73756666696369656e745f82015250565b5f6140c0602083613191565b91506140cb8261408c565b602082019050919050565b5f6020820190508181035f8301526140ed816140b4565b905091905056fea2646970667358221220ae94b64a6e69203db17e15f04fec88a7386aca95cc27b958e58d93e661a4ed3f64736f6c63430008150033",
  "immutableReferences": {},
  "source": "// SPDX-License-Identifier: MIT\r\npragma solidity ^0.8.21;\r\n\r\nimport \"@openzeppelin/contracts/security/ReentrancyGuard.sol\";\r\nimport \"@openzeppelin/contracts/security/Pausable.sol\";\r\nimport \"@openzeppelin/contracts/access/AccessControl.sol\";\r\nimport \"@openzeppelin/contracts/token/ERC20/IERC20.sol\";\r\n\r\n/**\r\n * EscrowManager  production-ready\r\n * - Supports ETH and ERC20.\r\n * - Emits ledger-friendly events for bridging.\r\n * - Uses AccessControl: DEFAULT_ADMIN_ROLE is backend/admin (deployer).\r\n */\r\ncontract EscrowManager is ReentrancyGuard, Pausable, AccessControl {\r\n    bytes32 public constant ARBITER_ROLE = keccak256(\"ARBITER_ROLE\");\r\n\r\n    enum Status { CREATED, FUNDED, RELEASED, REFUNDED }\r\n\r\n    struct Payment {\r\n        address payer;\r\n        address payee;\r\n        address token;   // address(0) => ETH\r\n        uint256 amount;\r\n        Status status;\r\n        bool hold;\r\n    }\r\n\r\n    mapping(bytes32 => Payment) public payments;\r\n\r\n    event PaymentCreated(bytes32 indexed paymentId, address indexed payer, address indexed payee, address token, uint256 amount);\r\n    event PaymentFunded(bytes32 indexed paymentId, address indexed from, uint256 amount, address token);\r\n    event PaymentReleased(bytes32 indexed paymentId, address indexed to, uint256 amount, address token);\r\n    event PaymentRefunded(bytes32 indexed paymentId, address indexed to, uint256 amount, address token);\r\n    event PaymentHoldSet(bytes32 indexed paymentId, bool hold);\r\n\r\n    // Ledger/bridge friendly events (include optional reason)\r\n    event FundsReleased(bytes32 indexed paymentId, address indexed to, uint256 amount, string reason);\r\n    event FundsRefunded(bytes32 indexed paymentId, address indexed to, uint256 amount, string reason);\r\n\r\n    // ERC20/stablecoin-specific events (clear naming)\r\n    event StablecoinDeposited(bytes32 indexed paymentId, address token, address payer, uint256 amount);\r\n    event StablecoinReleased(bytes32 indexed paymentId, address token, address to, uint256 amount);\r\n    event StablecoinRefunded(bytes32 indexed paymentId, address token, address to, uint256 amount);\r\n\r\n    constructor(address admin, address arbiter) {\r\n        require(admin != address(0), \"admin required\");\r\n        _grantRole(DEFAULT_ADMIN_ROLE, admin);\r\n        if (arbiter != address(0)) {\r\n            _grantRole(ARBITER_ROLE, arbiter);\r\n        }\r\n    }\r\n\r\n    modifier onlyAdmin() {\r\n        require(hasRole(DEFAULT_ADMIN_ROLE, msg.sender), \"Not admin\");\r\n        _;\r\n    }\r\n\r\n    modifier onlyArbiterOrAdmin() {\r\n        require(hasRole(ARBITER_ROLE, msg.sender) || hasRole(DEFAULT_ADMIN_ROLE, msg.sender), \"Not arbiter/admin\");\r\n        _;\r\n    }\r\n\r\n    /**\r\n     * createPayment\r\n     * - Called by backend/admin to register an expected payment on-chain.\r\n     * - paymentId: bytes32 identifier (e.g. sha256 hex of off-chain id)\r\n     * - token: address(0) => ETH, otherwise ERC20 token contract address\r\n     */\r\n    function createPayment(bytes32 paymentId, address payer, address payee, address token, uint256 amount)\r\n        external onlyAdmin whenNotPaused\r\n    {\r\n        require(payments[paymentId].payer == address(0), \"Payment exists\");\r\n        require(payer != address(0) && payee != address(0), \"Invalid addresses\");\r\n        require(amount > 0, \"Invalid amount\");\r\n\r\n        payments[paymentId] = Payment({\r\n            payer: payer,\r\n            payee: payee,\r\n            token: token,\r\n            amount: amount,\r\n            status: Status.CREATED,\r\n            hold: false\r\n        });\r\n\r\n        emit PaymentCreated(paymentId, payer, payee, token, amount);\r\n    }\r\n\r\n    /**\r\n     * depositETH\r\n     * - Payer must call with exact value.\r\n     */\r\n    function depositETH(bytes32 paymentId) external payable nonReentrant whenNotPaused {\r\n        Payment storage p = payments[paymentId];\r\n        require(p.payer != address(0), \"No payment\");\r\n        require(p.token == address(0), \"Not ETH payment\");\r\n        require(msg.sender == p.payer, \"Only payer\");\r\n        require(p.status == Status.CREATED, \"Wrong status\");\r\n        require(msg.value == p.amount, \"Amount mismatch\");\r\n\r\n        p.status = Status.FUNDED;\r\n        emit PaymentFunded(paymentId, msg.sender, msg.value, address(0));\r\n    }\r\n\r\n    /**\r\n     * depositERC20\r\n     * - Payer must approve this contract for `p.amount` beforehand.\r\n     */\r\n    function depositERC20(bytes32 paymentId) external nonReentrant whenNotPaused {\r\n        Payment storage p = payments[paymentId];\r\n        require(p.payer != address(0), \"No payment\");\r\n        require(p.token != address(0), \"Not token payment\");\r\n        require(msg.sender == p.payer, \"Only payer\");\r\n        require(p.status == Status.CREATED, \"Wrong status\");\r\n\r\n        uint256 balBefore = IERC20(p.token).balanceOf(address(this));\r\n        require(IERC20(p.token).transferFrom(msg.sender, address(this), p.amount), \"Transfer failed\");\r\n        uint256 received = IERC20(p.token).balanceOf(address(this)) - balBefore;\r\n        require(received == p.amount, \"Amount mismatch\");\r\n\r\n        p.status = Status.FUNDED;\r\n        emit PaymentFunded(paymentId, msg.sender, received, p.token);\r\n        emit StablecoinDeposited(paymentId, p.token, msg.sender, received);\r\n    }\r\n\r\n    function setHold(bytes32 paymentId, bool hold_) external onlyArbiterOrAdmin {\r\n        Payment storage p = payments[paymentId];\r\n        require(p.payer != address(0), \"No payment\");\r\n        p.hold = hold_;\r\n        emit PaymentHoldSet(paymentId, hold_);\r\n    }\r\n\r\n    /**\r\n     * release\r\n     * - Admin only.\r\n     * - Pays `payee` the escrowed funds.\r\n     * - Emits both PaymentReleased + FundsReleased + StablecoinReleased when token used.\r\n     */\r\n    function release(bytes32 paymentId) external onlyAdmin nonReentrant whenNotPaused {\r\n        Payment storage p = payments[paymentId];\r\n        require(p.status == Status.FUNDED, \"Not funded\");\r\n        require(!p.hold, \"On hold\");\r\n\r\n        p.status = Status.RELEASED;\r\n\r\n        if (p.token == address(0)) {\r\n            (bool ok, ) = p.payee.call{value: p.amount}(\"\");\r\n            require(ok, \"ETH transfer failed\");\r\n\r\n            emit PaymentReleased(paymentId, p.payee, p.amount, address(0));\r\n            emit FundsReleased(paymentId, p.payee, p.amount, \"\");\r\n        } else {\r\n            require(IERC20(p.token).transfer(p.payee, p.amount), \"ERC20 transfer failed\");\r\n\r\n            emit PaymentReleased(paymentId, p.payee, p.amount, p.token);\r\n            emit StablecoinReleased(paymentId, p.token, p.payee, p.amount);\r\n            emit FundsReleased(paymentId, p.payee, p.amount, \"\");\r\n        }\r\n    }\r\n\r\n    /**\r\n     * refund\r\n     * - Admin only.\r\n     * - Returns funds to payer.\r\n     */\r\n    function refund(bytes32 paymentId) external onlyAdmin nonReentrant whenNotPaused {\r\n        Payment storage p = payments[paymentId];\r\n        require(p.status == Status.FUNDED, \"Not funded\");\r\n        require(!p.hold, \"On hold\");\r\n\r\n        p.status = Status.REFUNDED;\r\n\r\n        if (p.token == address(0)) {\r\n            (bool ok, ) = p.payer.call{value: p.amount}(\"\");\r\n            require(ok, \"ETH refund failed\");\r\n\r\n            emit PaymentRefunded(paymentId, p.payer, p.amount, address(0));\r\n            emit FundsRefunded(paymentId, p.payer, p.amount, \"\");\r\n        } else {\r\n            require(IERC20(p.token).transfer(p.payer, p.amount), \"ERC20 refund failed\");\r\n\r\n            emit PaymentRefunded(paymentId, p.payer, p.amount, p.token);\r\n            emit StablecoinRefunded(paymentId, p.token, p.payer, p.amount);\r\n            emit FundsRefunded(paymentId, p.payer, p.amount, \"\");\r\n        }\r\n    }\r\n\r\n    function pause() external onlyAdmin { _pause(); }\r\n    function unpause() external onlyAdmin { _unpause(); }\r\n\r\n    function getPayment(bytes32 paymentId) external view returns (\r\n        address payer, address payee, address token, uint256 amount, Status status, bool hold\r\n    ) {\r\n        Payment memory p = payments[paymentId];\r\n        return (p.payer, p.payee, p.token, p.amount, p.status, p.hold);\r\n    }\r\n\r\n    /**\r\n     * sweep\r\n     * - Admin rescue function for tokens/ETH (do NOT touch active payments).\r\n     */\r\n    function sweep(address token, address to, uint256 amount) external onlyAdmin {\r\n        require(to != address(0), \"bad to\");\r\n        if (token == address(0)) {\r\n            (bool ok, ) = to.call{value: amount}(\"\");\r\n            require(ok, \"ETH sweep failed\");\r\n        } else {\r\n            require(IERC20(token).transfer(to, amount), \"ERC20 sweep failed\");\r\n        }\r\n    }\r\n\r\n    // allow receiving ETH directly (not used for deposits)\r\n    receive() external payable {}\r\n}\r\n",
  "sourcePath": "E:\\Accounting Automation System\\universal-finance-ai\\blockchain\\contracts\\EscrowManager.sol",
  "compiler": {
    "name": "solc",
    "version": "0.8.21+commit.d9974bed.Emscripten.clang"
  },
  "schemaVersion": "3.4.16",
  "updatedAt": "2025-09-15T04:52:50.983Z",
  "networkType": "ethereum",
  "devdoc": {
    "events": {
      "Paused(address)": {
        "details": "Emitted when the pause is triggered by `account`."
      },
      "RoleAdminChanged(bytes32,bytes32,bytes32)": {
        "details": "Emitted when `newAdminRole` is set as ``role``'s admin role, replacing `previousAdminRole` `DEFAULT_ADMIN_ROLE` is the starting admin for all roles, despite {RoleAdminChanged} not being emitted signaling this. _Available since v3.1._"
      },
      "RoleGranted(bytes32,address,address)": {
        "details": "Emitted when `account` is granted `role`. `sender` is the account that originated the contract call, an admin role bearer except when using {AccessControl-_setupRole}."
      },
      "RoleRevoked(bytes32,address,address)": {
        "details": "Emitted when `account` is revoked `role`. `sender` is the account that originated the contract call:   - if using `revokeRole`, it is the admin role bearer   - if using `renounceRole`, it is the role bearer (i.e. `account`)"
      },
      "Unpaused(address)": {
        "details": "Emitted when the pause is lifted by `account`."
      }
    },
    "kind": "dev",
    "methods": {
      "getRoleAdmin(bytes32)": {
        "details": "Returns the admin role that controls `role`. See {grantRole} and {revokeRole}. To change a role's admin, use {_setRoleAdmin}."
      },
      "grantRole(bytes32,address)": {
        "details": "Grants `role` to `account`. If `account` had not been already granted `role`, emits a {RoleGranted} event. Requirements: - the caller must have ``role``'s admin role. May emit a {RoleGranted} event."
      },
      "hasRole(bytes32,address)": {
        "details": "Returns `true` if `account` has been granted `role`."
      },
      "paused()": {
        "details": "Returns true if the contract is paused, and false otherwise."
      },
      "renounceRole(bytes32,address)": {
        "details": "Revokes `role` from the calling account. Roles are often managed via {grantRole} and {revokeRole}: this function's purpose is to provide a mechanism for accounts to lose their privileges if they are compromised (such as when a trusted device is misplaced). If the calling account had been revoked `role`, emits a {RoleRevoked} event. Requirements: - the caller must be `account`. May emit a {RoleRevoked} event."
      },
      "revokeRole(bytes32,address)": {
        "details": "Revokes `role` from `account`. If `account` had been granted `role`, emits a {RoleRevoked} event. Requirements: - the caller must have ``role``'s admin role. May emit a {RoleRevoked} event."
      },
      "supportsInterface(bytes4)": {
        "details": "See {IERC165-supportsInterface}."
      }
    },
    "version": 1
  },
  "userdoc": {
    "kind": "user",
    "methods": {
      "createPayment(bytes32,address,address,address,uint256)": {
        "notice": "createPayment - Called by backend/admin to register an expected payment on-chain. - paymentId: bytes32 identifier (e.g. sha256 hex of off-chain id) - token: address(0) => ETH, otherwise ERC20 token contract address"
      },
      "depositERC20(bytes32)": {
        "notice": "depositERC20 - Payer must approve this contract for `p.amount` beforehand."
      },
      "depositETH(bytes32)": {
        "notice": "depositETH - Payer must call with exact value."
      },
      "refund(bytes32)": {
        "notice": "refund - Admin only. - Returns funds to payer."
      },
      "release(bytes32)": {
        "notice": "release - Admin only. - Pays `payee` the escrowed funds. - Emits both PaymentReleased + FundsReleased + StablecoinReleased when token used."
      },
      "sweep(address,address,uint256)": {
        "notice": "sweep - Admin rescue function for tokens/ETH (do NOT touch active payments)."
      }
    },
    "notice": "EscrowManager  production-ready - Supports ETH and ERC20. - Emits ledger-friendly events for bridging. - Uses AccessControl: DEFAULT_ADMIN_ROLE is backend/admin (deployer).",
    "version": 1
  }
}